:020000040800F2
:10000000182F0020CD110008251200082512000825
:100010002512000825120008251200080000000023
:100020000000000000000000000000002512000891
:1000300025120008000000003505000885050008AD
:1000400025120008251200082512000825120008B4
:1000500025120008251200082512000825120008A4
:100060002512000825120008251200082512000894
:100070002512000825120008251200082512000884
:100080002512000825120008251200082512000874
:100090002512000825120008251200082512000864
:1000A0002512000825120008251200082512000854
:1000B0002512000825120008251200082512000844
:1000C0002512000825120008251200082512000834
:1000D0002512000825120008350F00082512000817
:1000E0002512000825120008251200082512000814
:1000F0002512000825120008251200082512000804
:1001000025120008251200082512000825120008F3
:1001100025120008251200082512000825120008E3
:1001200025120008251200082512000825120008D3
:1001300025120008251200082512000825120008C3
:1001400025120008251200082512000825120008B3
:1001500025120008251200082512000825120008A3
:100160002512000825120008251200082512000893
:100170002512000825120008251200082512000883
:10018000251200082512000870B584B0684601F0F9
:1001900067F91F4B0098186003F014F900221D4BFB
:1001A0001D4E03F085F900221C4B04460D4603F05A
:1001B000A9FA00221A4B03F07BF903F08BFB10A382
:1001C000D3E9002330602946204603F09BFA002241
:1001D000134B144E03F06CF903F07CFB124B2946D1
:1001E000186009A3D3E90023204603F08BFA00220C
:1001F0000B4B03F05DF903F06DFB306004B070BD94
:10020000000000000094C14000000000882A614105
:10021000480600200000F43F4C0600200000224069
:100220000000E03F500600205406002084B00190FA
:10023000019B93B10A4B1A6800210391039B9A42D8
:1002400005D9039B01330393039B9342F9D3019B8D
:10025000013B0193019B002BEFD104B0704700BF1D
:100260005006002084B00190019B93B10A4B1A689C
:1002700000210391039B9A4205D9039B0133039309
:10028000039B9342F9D3019B013B0193019B002BFC
:10029000EFD104B0704700BF54060020124B1B780A
:1002A0001BB9124B1B7803B900B9704770B50446EF
:1002B00000F024F80E4B0F4D1A6892F8381092F89F
:1002C00039606B5C23EA06036B5433B90A4992F830
:1002D0003A500B7823EA05030B70146300F010F812
:1002E000BDE8704001F0CEBB4C150020E4130020A7
:1002F00050150020401500203C15002072B67047B4
:1003000062B6704772B60E48FF210170002080F37C
:1003100009880C48016881F308880B4801210170A5
:100320000A484FF08051016062B6FEE707484FF07F
:1003300080510160704705484FF08051016070475F
:1003400022ED00E058060020E613002004ED00E056
:1003500070B5114C82B00121082001F0C7F840F6B9
:100360000E052046694640F20123019300954FF4A3
:10037000707601F049FD00220223694620468DF87F
:1003800004208DF80730009601F03EFD29462046F6
:1003900001F090FD02B070BD000C024000B50121DB
:1003A00083B0022001F0A2F84FF4807240F20123E2
:1003B000694604488DE80C0001F026FD03B05DF8A5
:1003C00004FB00BF00080240B8B138B50B4D04462D
:1003D0004FF48071284601F06DFD4FF48C70FFF7EB
:1003E00025FF4FF48071284601F062FD4FF48C70B8
:1003F000FFF71CFF013CEBD138BD704700080240FD
:1004000070B582B000240194019B154D5A1C632BDA
:100410000646019222D84FF48071284601F04AFD29
:10042000009402E0009B01330093019B009A334447
:100430009342F7D84FF48071284601F039FD0094BB
:1004400002E0009B01330093019B009A33449342E6
:10045000F7D8019B5A1C632B0192DCD902B070BD06
:100460000008024010B5074C4FF4007220460021EE
:1004700003F016FB04F50073034A23F0070313602F
:1004800010BD00BF5C06002058060020704700BF6A
:10049000704700BF704700BF704700BF704700BF84
:1004A000043222F00702F0B5134642F8080C42F875
:1004B000201C4FF012374FF003364FF002354FF04B
:1004C00001344FF011304FF0103142F8107C42F8F7
:1004D000146C42F8185C42F81C4C42F8240C42F8A8
:1004E000281C4FF0807CDFF840E042F804CC4FF04D
:1004F00009374FF008364FF007354FF006344FF00C
:1005000005304FF0043142F83C0C42F80CEC42F854
:100510002C7C42F8306C42F8345C42F8384C43F89A
:10052000401D1846F0BD00BF59250008704700BFA8
:10053000704700BF72B6EFF3098028B1203880E819
:10054000F00F0C49096808600B480C490A780270E2
:1005500008480B490A680260106890E8F00F2030E4
:1005600080F309884EF0040E7FF0020E62B67047E9
:10057000704700005015002040140020EC130020AC
:100580003415002008B572B600B5FFF7B7FE084A6B
:10059000137801331370FFF7B3FE01F04DF901F04A
:1005A000CBF85DF804EB4EF0040E62B608BD00BF58
:1005B0004C150020084A0949094B013810600A68A7
:1005C00022F07F420A601A6842F005021A601A6837
:1005D00042F002021A60704714E000E020ED00E0F3
:1005E00010E000E0028AF0B592B20446C8880D46D9
:1005F00022F4405202438989AB882F896E89228276
:10060000A28922F4B05222F00C023B43120433437D
:10061000120C9BB21343A381A38A9BB223F44073B1
:100620000B4385B0A382684600F01AFF1C4B9C4226
:1006300028D003F580639C4224D0029AA389A18923
:1006400013F4004F2B68174D02EB820214BF5B00BE
:100650009B0002EB8202B2FBF3F0A5FB00325209D1
:10066000642303FB120310010A040DD41B0132336F
:10067000A5FB0323C3F3431343EA000292B2228192
:1006800005B0F0BD039AD9E7D9003231A5FB01319D
:10069000C1F34212024392B2228105B0F0BD00BF05
:1006A000001001401F85EB51838929B923F40053C1
:1006B0001B041B0C838170479BB243F4005383815E
:1006C000704700BFC1F308018180704710B401F08A
:1006D0001F04C1F342110123012903FA04F30FD0CF
:1006E00002290CBF103014302AB9026810BC22EA6B
:1006F000030303607047026810BC13430360704734
:100700000C30F1E70388194214BF01200020704724
:10071000C1F3421210B4012301F01F04012A03FAAD
:1007200004F315D0022A0CBF028A828A92B21340C7
:10073000028892B24BB10123090A03FA01F10A427D
:1007400014BF1846002010BC7047184610BC7047F4
:10075000828992B21340EBE7090A012303FA01F1FF
:10076000C94389B201807047F8B5114B1D789DB916
:100770000F460646FFF7C2FD0E4B1C688CB1616840
:100780000D4A26810526196065602670E260FFF734
:10079000B7FD3D702046F8BD102300240B702046A5
:1007A000F8BDFFF7ADFD72233B702046F8BD00BFDA
:1007B0004C15002010260020683D00082DE9F0416E
:1007C000994C247888B0B4B91746984A15785DB921
:1007D0000278052A064616D00E9A01232C4613707D
:1007E000204608B0BDE8F0810E9A0D232046137014
:1007F00008B0BDE8F0810E9A002402232046137051
:1008000008B0BDE8F0813A0648BF07F07F078DE8E1
:100810000A0048BF0125FFF771FD9DE80A00032F7C
:100820003BD8DFE807F032281402328911EA0204CB
:1008300000F0DF8015B122EA040232817C4B1B6894
:100840009C85FFF75DFD0E9A00231370C8E732897F
:1008500031EA020428D115B122EA01023281744B37
:100860001B6899850091FFF74BFD00990E9A0023B4
:100870000C461370B4E7328931EA020400F09C8020
:10088000002DDBD00A433281D8E732890A4276D183
:10089000002DE4D00A433281E1E7FFF731FD0E9AE3
:1008A0006F23137000249BE7DFF88481ADF81C10E0
:1008B000D8F80010069691F834200B63002442F01B
:1008C000200381F8343081F835407368059103AA1C
:1008D0004FF0020E049403938A628DF81EE003B178
:1008E0005A60726091F83820524C91F839E0A35C5C
:1008F00023EA0E03A35433B94F4A91F83A10137800
:1009000023EA01031370FFF7FBFC01F0BBF8FFF7CC
:10091000F5FCD8F8003093F83580B8F1000F18D006
:100920000499039A002483F83540002976D00A60A0
:1009300002B15160059A0024946283F83440FFF7B5
:10094000DFFCB8F1020F0E9A0CBF0E230A231370BE
:1009500046E79C8D4DB1032F9FD8DFE807F00C0CC4
:100960000202338923EA04033381FFF7C9FC0E9A9C
:100970000023137034E7338923433381F5E7DFF82D
:10098000B080ADF81C10D8F80010069691F834200D
:100990000B6342F02002002381F8342081F83530C7
:1009A0007468059103AA8DF81E30049303948A623B
:1009B000002C96D0626094E7DFF87480ADF81C10CC
:1009C000D8F80010049491F8342081F8354042F0B2
:1009D000200281F834207468069603AA4FF0010EB5
:1009E0000B63059103948A628DF81EE0002CE1D11F
:1009F00077E7DFF83C80ADF81C10D8F800100494BD
:100A000091F8342081F8354042F0200281F83420FA
:100A10007468069603AA4FF0030EE1E7069C626035
:100A2000002A86D186E700BF4C150020E413002081
:100A300050150020401500203C1500202DE9F04FF6
:100A40000478052C83B006D001221A7000242046B9
:100A500003B0BDE8F08F1D4616460F460446FFF76B
:100A60004DFC8646002E00F0CB80012E40F0C28067
:100A700023893B4323816268002A00F0EA80DFF883
:100A800028B2019400209BF8001000918046074690
:100A9000DE43917C032900F2A180DFE801F0985940
:100AA0001B02118A194019D11268002AF1D1019C48
:100AB000002840F0EC807046FFF722FCB8F1010FEF
:100AC00000F0CB80FFF71AFC2489FFF719FC002304
:100AD0002B70BCE7118A31EA0304E5D1D2F808C0D3
:100AE0009CF83490CCF8307009F0DF09ACF82C1089
:100AF0008CF835708CF83490B9F1000F40F0858097
:100B00009CF8389067499CF8390011F80910654C39
:100B10009CF83AA0014304F809100099012041EA29
:100B20000A010091824692E80202B9F1000F72D0E8
:100B3000C9F80010126809B1C1F80490BAF1010FA8
:100B400008BF4FF00108CCF82870002AA1D1AEE709
:100B5000118A16EA010CA7D0916891F834900F63BE
:100B600009F0DF09A1F82CC081F8357081F83490C4
:100B7000B9F1000F4CD191F838904A4C91F83900F6
:100B800014F809C091F83AA04CEA000C04F809C026
:100B9000009C012044EA0A0400948246D2F80490A2
:100BA000D2F800C0B9F1000F41D0C9F800C01268F6
:100BB000BCF1000F01D0CCF80490BAF1010F08BFCE
:100BC0004FF001088F62002A7FF463AF6FE7B2F83D
:100BD00010C03CEA06017FF467AFBDE700285BD197
:100BE0007046FFF78DFB00246F2320462B7003B067
:100BF000BDE8F08FFFF784FB71232B70002426E7FC
:100C0000238923EA0703238135E74FF0000A8AE7A7
:100C10004FF0000AC2E7D268516021B3C1F80490D6
:100C2000CCF82890BAF1000F1AD10A4631E7D26801
:100C3000C2F804C0BCF1000F1ED0CCF80490C1F87B
:100C40002890BAF1000F01D1624622E7D0466246F1
:100C50001FE77046FFF754FB34E700F013FF31E75E
:100C6000D0460A4615E7BAF1010F019CCCF82810CE
:100C700008BF4FF001081BE763468C46BAF1010F2D
:100C8000019CCCF8283008BF4FF0010810E79DF810
:100C900000308BF800300EE79DF800308BF8003004
:100CA0009EE700BF401500203C150020F8B5124C0F
:100CB0005021204600F0DEFE214600230F4801F8B7
:100CC000103B0F4A046004F1200704F1300604F1E0
:100CD00040056761666265636160237484F8203053
:100CE00084F8303084F840306364E260E261E262AC
:100CF000E263E264F8BD00BFF0130020102600207C
:100D0000683D00084268036832B1136003B15A605D
:100D1000836800229A627047C1684B60002BF6D14D
:100D2000F6E700BF2DE9F04F4848DFF83C91484F07
:100D30009BB04FF4B4720021064602F0B1FE0024CD
:100D4000384600F0D7F8012106A800F00DFA9DF80A
:100D5000185002F0E7FD2844437803F00303022B08
:100D600008BF203D423D112D65D8DFE805F0336412
:100D7000330C646464646464336464646464640948
:100D800000F07CFADCE7334800F0B4F801221146A9
:100D90000DF11703D9F80800FFF750FE0DF1170306
:100DA0008322FF210093D9F800000023FFF706FDFE
:100DB0000446294800F09EF8204600F003F9274831
:100DC00000F098F84FF4B4720021204802F068FE59
:100DD0000024B5E74FEA440A0AEB040106EBC10020
:100DE000621C00258580857126F83120CB009DF896
:100DF000185003935FFA82F802F094FD284454449B
:100E00004278039B02F00302022A08BF203DEDB2A4
:100E100006EBC404442D06EB030BA5700FD00DF1B7
:100E20001A0002F077FDA0800D4B59461868444621
:100E300001F04EF984E70B4800F05CF880E7981D5C
:100E400030440DF11A0102F079FEEDE7D4100020D4
:100E50006C3D0008B83D0008E43D0008F83D00087E
:100E6000941000209C3D00083C12002070B5012128
:100E700086B04FF4003000F045FB1B4D1B4C0121A8
:100E8000084600F033FB0C26194B019328466946AF
:100E9000009600F0B9FF28460722022101F00CF865
:100EA00028460722032101F007F8002320464FF4CB
:100EB000E13202A9ADF80C30ADF80E30ADF81030CB
:100EC000ADF814300292ADF81260FFF78BFB2046AC
:100ED000012240F22551FFF7F9FB20460121FFF7DF
:100EE000E3FB06B070BD00BF0000024000440040BC
:100EF0000202000170B582B000230193019BC35C24
:100F0000A3B10B4C0546019BEE5C80212046FFF708
:100F1000F9FB0028F9D031462046FFF7D3FB019BAF
:100F200001330193019BEB5C002BECD102B070BD4F
:100F3000004400402DE9F0411E4E40F2255130465C
:100F4000FFF7E6FB08B9BDE8F08140F225513046D5
:100F5000FFF702FCB388DBB2A3F14102192A9846DD
:100F600010D82033DBB2144A144C1168481C635467
:100F70001060104C40212046FFF7C4FB0028F9D038
:100F8000BDE8F0810D2BEED80B4F3B68002B0ADD3E
:100F90000B4D002415F8011F3046FFF793FB3B680B
:100FA0000134A342F6DC0023414602483B60FFF7D0
:100FB00089FBDEE700440040400600206008002076
:100FC0005F08002070B584B0002800F0A2805B4B61
:100FD0005B49A3FB0024E40804EB8402A0EB42027B
:100FE0008A5C8DF80F20002C00F09680A3FB045241
:100FF000D20802EB8202A4EB4204524A0C5D8DF847
:101000000E40A2FB0042520900F08880A3FB02546C
:10101000E40804EB8404A2EB44044B4A0C5D8DF815
:101020000D40A2FB004292097AD0A3FB0254E408CF
:1010300004EB8404A2EB4404444A0C5D8DF80C409C
:10104000A2FB0042520B6DD0A3FB0254E40804EB58
:101050008404A2EB44023E4C8A5C8DF80B204209CA
:10106000A4FB0242D2095FD0A3FB0254E40804EBC4
:101070008404A2EB4404374A0C5D8DF80A40A2FBBD
:101080000042920C52D0A3FB0254E40804EB840407
:10109000A2EB4404304A0C5D8DF80940A2FB0042EB
:1010A000920D45D0A3FB0254E40804EB8404A2EBA8
:1010B00044042A4A0C5D8DF80840A2FB0042520EFF
:1010C00038D0A3FB0243DB0803EB8303A2EB43030B
:1010D000234ACB5C8DF80730430AA2FB0323DB09CC
:1010E0002AD0CB5C8DF8063005251E4C6E466D442B
:1010F00080212046FFF706FB0028F9D015F9011FD3
:10110000204689B2FFF7DEFAAB1B0F2BF0D104B0FB
:1011100070BD30238DF80F300E25E6E70D25E4E78E
:101120000C25E2E70B25E0E70A25DEE70925DCE7E9
:101130000825DAE70725D8E70625D6E7CDCCCCCCBD
:101140000C3E00081F85EB51D34D62105917B7D1E3
:10115000C55A7C0A83DE1B436BCA5F6B893BE6552D
:10116000834B040000440040F8B5174E05460F4677
:1011700020211548FFF7C6FA012807D0FF232B705E
:1011800020211148FFF7BEFA0128F7D1B488E4B254
:10119000FF2C2C702346EBD00A2CE9D01FB90D2B65
:1011A0000ED00135E4E780213046FFF7ABFA002886
:1011B000F9D021463046FFF785FA2B780D2BF0D178
:1011C00000232B70F8BD00BF0044004008B50F4855
:1011D0000F4B984207D2C2431A4422F00302043252
:1011E0000C4902F0C3FB0C480C494FF00002884246
:1011F000B8BF40F8042BFADBDFF82400016841F4A3
:1012000070010160BDE8084000F0F4B80000002063
:101210004006002039450008400600201427002021
:1012200088ED00E008B53220FFF7CEF84FF4FA70F1
:10123000FFF718F8F7E700BF2DE9F0410E4C2068E2
:1012400086B0B0B16FF040480027E5686168237A46
:10125000268A019105EB080201EB820203970295B1
:1012600000930496002101F0A5F854F8140F00280B
:10127000EBD106B0BDE8F081000000202DE9F0417F
:101280001C4C236882B06BB1DFF878801A4F1B4E7C
:10129000257A6946284601F023F930B154F8143F05
:1012A000002BF5D102B0BDE8F0814046FFF722FEE9
:1012B0002846FFF787FE3846FFF71CFE01980028F6
:1012C000B8BF03308010FFF77DFE3046FFF712FEF7
:1012D00000980028B8BF03308010FFF773FE08485D
:1012E000FFF708FE54F8143F002BD1D102B0BDE83F
:1012F000F08100BF00000020383E0008443E000896
:10130000BC3E00081C3E000870B582B072B62A4888
:101310002A4E2B4D2B4C01F0EDFD2748FFF7EAFD3F
:101320002948FFF7E7FD2948FFF7E4FD00F0DCFA64
:10133000FFF748FE2648FFF7DDFD2648FFF7DAFDF8
:101340003068A5FB0030800CFFF73CFE2248FFF719
:10135000D1FD3068A5FB0030800CFFF733FE1F483D
:10136000FFF7C8FD1E4B1868FFF7C4FD0F211D488D
:1013700000F054FE1C4B04F110051860002001F031
:101380002BFE44F8040BAC42F8D1184C04F10C05C8
:101390000DF107010020FFF7E7F944F8040BA5421F
:1013A000F6D1FFF749FF1248FFF704F962B6FF20B4
:1013B00001F05EF802B070BD503E0008D00400207D
:1013C00083DE1B43D4130020BC3E0008603E0008AF
:1013D000743E00088C3E00089C3E0008B83E0008A1
:1013E0007800002098100020941000203C1200206B
:1013F00040D10C0008B500F073FDFEF7C5FEFFF705
:1014000035FD01F087F900F007FCFEF7C7FFFEF796
:101410009FFF00F0DDF80121082000F067F80D4B78
:101420001A6842F080721A601A6842F080621A608C
:101430001A6842F080521A601A6842F080421A60BC
:1014400072B60523044A0548002100F06BFF00F046
:10145000C3F9FEE7000C0240D01300200913000876
:101460001E4A936803F00C03042B10B41AD0082B07
:101470001BD01B4B0360194A1A499468C4F3031428
:101480000C5DE34043609468C4F382240C5D23FA4E
:1014900004F48460926810BCC2F342328A5CD34088
:1014A000C3607047104B0360E5E7546851685268A9
:1014B0006302C2F3881201F03F014CBF0A4B084B94
:1014C000B3FBF1F303FB02F3044A5268C2F3014297
:1014D00001325200B3FBF2F30360CCE70038024064
:1014E0000024F4008000002000127A00044A136BEC
:1014F00019B923EA0000106370471843106370475E
:1015000000380240044A136C19B923EA0000106441
:101510007047184310647047003802402DE9F043CB
:10152000DFF88880204FDFF8889089B00DF10B0537
:10153000D8F80800009500238322FF21FFF73EF929
:1015400003A9386800F0F8FD10E0D9F804600A201B
:10155000FEF7A4FE2146304601F0CCFDD8F8040089
:10156000009500238322FF21FFF728F929463868D8
:1015700000F02EFD044650B1A378442B04D04C2B30
:10158000E3D0D9F80860E2E7D9F80C60DFE7386803
:1015900000F090FD2B460122BDF81010D8F8000095
:1015A000FFF74CFAC4E700BF941000203C12002063
:1015B000D413002010B5054CFEF7A0FE23680133BC
:1015C0002360FEF79DFEFEF767FFF5E7E8130020B6
:1015D000F0B589B0FEF746FF3D493E4A3E483F4BD5
:1015E0003F4F404E404D00240C60147004701C604E
:1015F0003E493F4B3F4A40483C7034702C603F4F5F
:101600003F4E404D1C605C600C70147021460470AD
:101610004FF4E7623C483C7034602C6002F040FAC2
:1016200021464FF480723948394C02F039FA394B6F
:1016300003F5DC6243F8084C43F8443C58339342CA
:10164000F8D1314B344F354EC3F8304700254FF4B5
:10165000F062C3F8F45632483B602946356002F028
:101660001FFA304B03F5ED6203F8185C43F8044CA5
:1016700043F8143C18339342F6D1294B2A4A83F895
:101680006857C3F86C57C3F87C471360FFF70EFB2D
:1016900000F096FB00F090FD244A01920320802187
:1016A0004FF6FF7304900291009303953F2302F5D8
:1016B000FE7200211E4800F07DFE0DF11F021D4943
:1016C0003F2000F0E3FEFEF7E1FE09B0F0BD00BFF1
:1016D000541500204C150020E4130020E8130020CE
:1016E000CC140020E6130020C4140020E5130020D1
:1016F000401500203C15002040140020EC13002071
:101700003415002050150020D81E0020142600207B
:10171000683D0008301F0020C81400204414002039
:101720005817002070170020481500205815002079
:10173000B5150008184400081C4B1B78012B00D07D
:10174000704770B582B0FEF7D9FD194A13783BBBDC
:10175000184B1B78FBB9184A184B1278184C9A5C36
:101760001849A45C184D1B5D0978184E184C03EB02
:10177000C203DBB2994255F82320337022600AD0AD
:10178000144CD16B2368019001310133D163236084
:10179000FEF7D1FD019802B0BDE87040FEF7B0BD84
:1017A000013BDBB21370002BF5D1D1E7E61300202B
:1017B0004C150020E41300203C15002018430008BD
:1017C000401500204014002014260020EC130020B7
:1017D00034150020C41400200E4B1B7803B1704751
:1017E00070B40D4A0D4B12780D499A5C0D4D895C11
:1017F0000D4E5B5C0D4C0E480E4903EBC203DBB291
:10180000337055F82320237070BC02600A60FEF725
:1018100079BD00BFE61300203C15002018430008E6
:101820004015002014260020EC1300204014002056
:101830003415002050150020F8B5FEF779FEFEF7AC
:101840005DFD234A136801331360FEF759FD214BF8
:101850001B78012B00D0F8BD1F490A78012AFAD065
:1018600003D3022A18BF00230B701C4B1C6894F88A
:1018700036303F2BEFD01A4E1A4DFEF73FFD236B4B
:101880005A1EE3B12263D2B994F8343013F0370210
:1018900004D003F0C80384F8343001221B0784F815
:1018A00035200CD494F8381094F839E06A5C377815
:1018B00094F83A3042EA0E023B436A54337064694A
:1018C000FEF71EFD94F836303F2BD6D1F8BD00BF91
:1018D00054150020E6130020C014002044140020FA
:1018E0003C1500204015002047F21720704700BF2C
:1018F000704700BF2DE9F04107462D4897F80AC010
:101900002C4C10F80CE007EB0E05ED7A405D00EB77
:10191000CE00C0B2002554F8206096F8344086F816
:10192000353024EA020213077162356386F83420E9
:1019300026D596F8395096F838E007EB0E02ED43BD
:10194000D37AEDB22B40D3725BB3346AB4B196F85C
:101950003AC022686FEA0C0C6AB102EB0E01CB7A36
:101960002B40CB721BB9937A03EA0C03937254F8A1
:10197000042F002AF1D1F761BDE8F081BDE8F081C4
:101980000D4C0E4914F80E2091F8008096F839504D
:1019900096F83A302A4343EA080304F80E200B7005
:1019A000C9E796F83A302CEA030C87F80AC0CCE76E
:1019B0001843000814260020401500203C15002084
:1019C000F0B40E4B0E4D1A6892F83810D0614718DB
:1019D00092F83960FC7A6B5C3443FC7292F83A40BE
:1019E000827A23EA0603224382726B5423B9054AA2
:1019F000137823EA04041470F0BC704750150020DB
:101A0000401500203C15002010B490F8382090F8C4
:101A100039400A44D37A23EA0403D3722BB990F8ED
:101A20003A208B7A23EA02038B7210BC704700BF06
:101A300070B40A6890F8385090F83A6090F83940DD
:101A400072B1E443E4B2F6435019C37A2340C3723F
:101A500013B9937A3340937251F8042F002AF3D1CB
:101A600070BC704700238372C0F80B30C0F80F3091
:101A7000704700BF29B101398AB20132002102F05A
:101A80000FB8704770B582B0FEF738FC154B1B7865
:101A900013BB154B1B78FBB9144A154B1278154C28
:101AA0009A5C1549A45C154D1B5D0978144E154CC4
:101AB00003EBC203DBB2994255F823203370226056
:101AC0000AD0114CD16B2368019001310133D163ED
:101AD0002360FEF72BFC019802B0BDE87040FEF7D2
:101AE0000FBC00BF4C150020E41300203C15002063
:101AF0001843000840150020401400201426002040
:101B0000EC13002034150020C41400202DE9F84304
:101B10001F4606460D469146BDF82880FEF7EEFBAF
:101B2000364B1C68002C63D062691A60FEF7E8FB34
:101B30000998606006F00702F10808982560012303
:101B4000002503FA01FEE06093402D4884F8372019
:101B500084F8381084F83AE084F83930206584F845
:101B600036602046C4F80890A4F81080678284F894
:101B7000345084F83550256384F83B50E561256284
:101B8000A5626562E56365642564A564E5646565D1
:101B9000FEF7CCFCFEF7B2FB1A4B43F82640FEF7EB
:101BA000AFFB2046FEF774FCFEF7A8FB164AA561C2
:101BB0001368636103B19C6194F83860DFF854E006
:101BC000124F134D9EF800C02B7894F83A10146011
:101BD000BA5D94F8394041EA0C01224301338EF892
:101BE0000010BA552B70FEF78BFB0020BDE8F88380
:101BF000FEF786FB4220BDE8F88300BFC814002032
:101C0000683D0008142600204414002040150020E0
:101C1000CC1400203C150020F0B5012183B002ACAB
:101C20000846FFF763FC4FF4004501210220FFF74F
:101C30005DFC44F8085D40F2012321461C480193F5
:101C40004FF4807700F0E0F821461A48009702260A
:101C500000F0DAF821461748009600F0D5F814484D
:101C60002946054600F026F93946124800F022F9C7
:101C70003146104800F01CF908244FF40041284672
:101C800000F018F94FF480710A4800F011F94FF490
:101C90008071084800F00EF9013CEED102210548A0
:101CA00000F006F90221034800F004F903B0F0BD8A
:101CB00000000240000402402DE9F041154F164E8D
:101CC0008046082580240FE000F0F2F84FF4807180
:101CD000304600F0EDF84FF48071304600F0EAF83D
:101CE000013D4FEA54040BD014EA080F4FF40041B1
:101CF0003846E9D14FF40041384600F0DBF8E5E71B
:101D00000221054800F0D4F802210348BDE8F04163
:101D100000F0D0B8000002400004024070B50A4E46
:101D20000A4D82B00DF107020021706801F07AF9C6
:101D300004460079FFF7C0FF0DF1070321886868AA
:101D40000122FEF77BFEEDE7D41300203C120020B9
:101D500070B50A4E0A4D82B00DF107020021B0683D
:101D600001F060F904468088FEF74AFB0DF1070395
:101D7000218868680122FEF761FEEDE7D413002098
:101D80003C12002070B50C4E0C4D82B00DF10702D4
:101D90000021F06801F046F9044600F04FFCA01D58
:101DA00000F074FF00F0EAFB0DF10703218868687A
:101DB0000122FEF743FEE9E7D41300203C12002085
:101DC00070B50E4C78212046FFF754FE0C4A0D4B9F
:101DD000146004F1180604F1300504F1480004F120
:101DE000600100226660E5616063E16462666361D0
:101DF000E3626364E365636770BD00BF481400205D
:101E0000D0140020683D000800222DE9F047134659
:101E1000D1F800E001274FF0030C04E00133102B50
:101E200002F1020229D007FA03F434EA0E05F5D1D3
:101E3000D0F800800E790CFA02F5ED4308EA0508A7
:101E4000C0F80080D0F800A006FA02F9013E49EA85
:101E50000A09012E0CFA02F8C0F800900FD9C568E3
:101E6000CC7925EA0805C560C568944001332C4348
:101E7000102BC46002F10202D5D1BDE8F087D0F882
:101E800008904E7905EA09058560D0F808908D79AB
:101E9000964046EA09068660466826EA04044460DD
:101EA000466805FA03F4A4B234434460D7E700BFA0
:101EB0000183704741837047CB0800EB830001F03A
:101EC000070110B4036A89000F248C4023EA04033D
:101ED0000362036A10BC02FA01F119430162704700
:101EE000354B36481A68002142F001021A609960A9
:101EF0001A6822F0847222F480321A6058601A68DC
:101F000082B022F480221A60D960009101911A688F
:101F100042F480321A601A4603E0009BB3F5A06FCA
:101F200009D0136803F400330193009B013300933D
:101F3000019B002BF1D0204B1B6813F4003318BF1A
:101F400001230193019B012B05D01D4B4FF0006233
:101F50009A6002B07047184B1A491A6C1A4842F03E
:101F600080521A640A6842F480420A609A689A6051
:101F70009A6842F400429A609A6842F4A0529A60C9
:101F800058601A6842F080721A601A689201FCD593
:101F90000E49094A40F205600860996821F0030182
:101FA0009960996841F002019960936803F00C030D
:101FB000082BFAD1C9E700BF0038024010300024D6
:101FC00000ED00E00070004008544007003C024073
:101FD000F8B50378022B1CD104460D46FEF78EF9A6
:101FE0006368DC8A2CB91F232B70FEF789F9204621
:101FF000F8BD19699E680A1DB2421A6104F1FF37E3
:1020000008BF5A680C68DF8208BF1A6100232B7072
:10201000EBE7012300240B702046F8BD2DE9F843BF
:10202000204B93F80090B9F1000F2AD11E4F88463B
:102030000646FEF763F93C683CB363683B60FEF715
:102040005FF9FEF75BF9194B1D681DB32A681A602A
:10205000FEF756F906EB88010222154B6E60EE6022
:102060002E61A960A5F81480A5F816902046A4F862
:102070000890656022706361FFF7F4FC2046BDE8BC
:10208000F88300242046BDE8F883FEF739F920469E
:10209000BDE8F8833B6863603C60FEF731F92C468D
:1020A000ECE700BF4C150020481500203815002033
:1020B000683D000810B50446FEF720F96368002467
:1020C0005A68DA601A61DC82FEF71AF9204610BD00
:1020D0000378022B01D00120704770B504460D46ED
:1020E000FEF70CF9A37A0646CBB96368DA8A998AB7
:1020F000914210D9D968081DD8600D60D8689968D8
:1021000001328842DA8204BF5A68DA603046FEF74C
:10211000F7F8002070BDFEF7F3F81E2070BD2946C9
:10212000002304222046FFF7E5FB3046FEF7E8F8DF
:10213000FFF7A8FC002070BD0378022B01D001201E
:10214000704770B504460D46FEF7D8F8A37A2B7495
:1021500004F10B0205F1080305F1100604F1130167
:102160008B4238BFB24215D313435B0712D1D2E979
:102170000023C5E902236268D38A4BB1116909685B
:10218000928AEA802960AB80FEF7BAF8002070BD21
:102190001946F5E7E37A2B72237B6B72637BAB7294
:1021A000A37BEB72E37B2B73237C6B73637CAB733E
:1021B000A37CEB73DFE700BF10B5094C602120461C
:1021C000FFF758FC234604F1180143F8301B054A79
:1021D000A36104F1480000212063A164146010BDD4
:1021E000D4140020381500202DE9F0410546FEF7F3
:1021F00085F8FF2D804662D0404F57F82540002CCF
:1022000066D0012C73D094F838203D4994F83900F9
:102210008B5C23EA00038B54002B48D0E16911B199
:102220002046FFF7F1FB216A11B12046FFF700FCC1
:10223000A06A08B1FEF766FD324E33780022FF2B0C
:1022400018BF01334046226384F8342084F83520D7
:1022500018BF3370FEF754F8FFF74AFBFEF74EF84D
:102260003378804603BB2046FEF714F92649002345
:1022700047F825300B78A269013B0B706369002A8F
:1022800031D0536163699A61204B214A19686161B9
:10229000404622651C60FEF733F81E4B1B78012B6D
:1022A0001CD00020BDE8F081013B3370DBE71A4A07
:1022B00094F83A10137823EA01031370AEE7174B32
:1022C0000E4F1B6893F8365057F82540002C98D1D4
:1022D0004046FEF715F84320BDE8F081FFF7D2FB3A
:1022E0000020BDE8F0810E499A610B60CCE74046C2
:1022F000FEF706F83D20BDE8F08100BF142600205F
:1023000040150020E4130020CC140020C814002045
:10231000683D0008E61300203C1500205015002001
:10232000441400202DE9F04385B01D46044688463C
:102330009146FDF7E3FF1C4B1B7853B91B4F57F831
:1023400025606EB1FDF7DCFF2824204605B0BDE80E
:10235000F083FDF7D5FF3C24204605B0BDE8F083AF
:10236000012347F82530FDF7CBFF33464A46414667
:102370002046FEF795F802960146019600963346F0
:1023800032462846FFF7C2FB044630B9084B1B789B
:10239000012BDAD1FFF776FBD7E7FDF7AFFF47F860
:1023A0002560FDF7ADFFD0E74C1500201426002076
:1023B000E61300202DE9F04786B01D4606460F467D
:1023C0009046BDF83890BDF84840FDF797FF254B83
:1023D0001B785BB9DFF894A05AF8251069B1FDF7B6
:1023E0008FFF2824204606B0BDE8F087FDF788FF60
:1023F0003C24204606B0BDE8F087012305914AF849
:102400002530FDF77DFF04F00303032B059919D058
:102410002346424639463046FEF742F8119B019367
:10242000109B0294014600930F9A4B462846FFF7F3
:102430006DFB044670B90C4B1B78012BD2D1FFF712
:1024400021FBCFE7109B002BE2D09A000F9801F000
:1024500027FBDDE7FDF752FF00234AF82530FDF7A3
:102460004FFFBFE74C150020E61300201426002084
:10247000054B1B780BB1402070473F2801D13E200F
:102480007047FFF7B1BE00BF4C15002070B5114B6F
:102490001B78144613B11223137070BD05460E4607
:1024A000FDF72CFFFF2D0BD00B4B53F8253063B1FC
:1024B000012B0AD01E65FDF723FF0023237070BD9A
:1024C000064B1B6893F83650EEE7FDF719FF4323E0
:1024D000237070BD4C1500201426002050150020DC
:1024E000002370B50B6004464B600D46FDF706FFF8
:1024F000FF2C0CD0164B53F824308BB1012B0FD08E
:102500001A8AD20710D4FDF7FBFE452070BD114B8F
:102510001B6893F836400E4B53F82430002BEDD156
:10252000FDF7EEFE432070BD9C68DE68FDF7E8FE17
:102530002368221D4BB952F8040B01330028FAD04E
:10254000F61A85E84800002070BD0023F8E700BFB8
:10255000142600205015002008B5064B1868FDF71A
:102560009DFF054B1B7803B108BDFF20BDE8084067
:10257000FFF73ABE501500204C150020F0B52B4D4A
:102580002B4C2C4883B04FF40051FFF793FC2846A6
:102590000121FFF78DFC20460821FFF78BFC204628
:1025A0001021FFF787FC20462021FFF783FC2046FF
:1025B0004021FFF77FFC28460121FFF77BFC7827AD
:1025C0006946204640F2012600970196FFF71CFC61
:1025D0000120FDF747FE28460121FFF769FC204650
:1025E0000821FFF767FC20461021FFF763FC204617
:1025F0002021FFF75FFC20464021FFF75BFC2046CF
:102600002021FFF755FC28460121FFF753FC6946BE
:10261000204600970196FFF7F7FB0120FDF722FE09
:10262000054B00221A7003B0F0BD00BF000C024041
:10263000001002400008024044060020F0B5314D71
:10264000314C324883B04FF40051FFF733FC284639
:102650000121FFF72DFC20460821FFF72BFC204627
:102660001021FFF727FC20462021FFF723FC2046FE
:102670004021FFF71FFC28460121FFF71BFC7827AC
:10268000694640F20126204600970196FFF7BCFB01
:102690000120FDF7E7FD28460121FFF709FC204650
:1026A0000821FFF707FC20461021FFF703FC204616
:1026B0002021FFF7FFFB20464021FFF7FBFB2046D0
:1026C0004021FFF7F5FB28460121FFF7F3FB6946A0
:1026D000204600970196FFF797FB0120FDF7C2FD0A
:1026E0000B4B002205201A70FDF7BCFD6946204601
:1026F00000970196FFF788FB0120FDF7B3FD03B0BB
:10270000F0BD00BF000C0240001002400008024073
:10271000440600202DE9F047012184B01020FEF787
:10272000E5FE0DF11009012104204FF07808FEF7B5
:10273000DDFE01210820F14CDFF8C8A3F04EFEF7C2
:10274000D5FE49F8108D40F20127494620460197F1
:10275000FFF75AFB4FF4205349465046012500939A
:10276000FFF752FB494630460095FFF74DFB5046B8
:102770004FF40051FFF79EFB29463046FFF79AFBC6
:1027800050464FF40061FFF795FB0F20FDF76AFDFF
:1027900029463046FFF78CFB20460821FFF78AFBCD
:1027A00020461021FFF786FB20462021FFF782FB01
:1027B00020464021FFF77EFB20464021FFF778FBB3
:1027C00020462021FFF774FB29463046FFF772FBB5
:1027D00002A92046CDF808800397FFF715FB28468D
:1027E000FDF740FD29463046FFF762FB20460821F1
:1027F000FFF760FB20461021FFF75CFB20462021FD
:10280000FFF758FB20464021FFF754FB294630468E
:10281000FFF750FB02A92046CDF808800397FFF789
:10282000F3FA2846FDF71EFD3220FDF71BFD294671
:102830003046FFF73DFB20460821FFF73BFB2046D3
:102840001021FFF737FB20462021FFF733FB2046FE
:102850004021FFF72FFB20464021FFF729FB2046B0
:102860002021FFF725FB29463046FFF723FB02A96D
:102870002046CDF808800397FFF7C6FA2846FDF7F3
:10288000F1FC29463046FFF713FB20460821FFF7ED
:1028900011FB20461021FFF70DFB20462021FFF7FA
:1028A00009FB20464021FFF705FB29463046FFF78C
:1028B00001FB02A92046CDF808800397FFF7A4FA90
:1028C0002846FDF7CFFC29463046FFF7F1FA2046AF
:1028D0000821FFF7EFFA20461021FFF7EBFA204618
:1028E0002021FFF7E7FA20464021FFF7E3FA2046D0
:1028F0004021FFF7DDFA20462021FFF7D9FA2946CB
:102900003046FFF7D7FA02A92046CDF80880039792
:10291000FFF77AFA2846FDF7A5FC29463046FFF76F
:10292000C7FA20460821FFF7C5FA20461021FFF715
:10293000C1FA20462021FFF7BDFA20464021FFF7CB
:10294000B9FA29463046FFF7B5FA02A92046CDF874
:1029500008800397FFF758FA2846FDF783FC2946BD
:102960003046FFF7A5FA20460821FFF7A3FA2046D4
:102970001021FFF79FFA20462021FFF79BFA2046FF
:102980004021FFF797FA29463046FFF793FA02A94C
:102990002046CDF808800397FFF736FA2846FDF762
:1029A00061FC29463046FFF783FA20460821FFF7ED
:1029B00081FA20461021FFF77DFA20462021FFF7FB
:1029C00079FA20464021FFF775FA20462021FFF7CB
:1029D0006FFA29463046FFF76DFA02A92046CDF876
:1029E00008800397FFF710FA2846FDF73BFC052007
:1029F000FDF738FC29463046FFF75AFA20460821F1
:102A0000FFF758FA20461021FFF754FA20462021FC
:102A1000FFF750FA20464021FFF74CFA20462021CC
:102A2000FFF746FA29463046FFF744FA02A9204646
:102A3000CDF808800397FFF7E7F92846FDF712FC69
:102A400029463046FFF734FA20460821FFF732FACC
:102A500020461021FFF72EFA20462021FFF72AFA00
:102A600020464021FFF726FA20461021FFF720FAE2
:102A700020460821FFF71CFA29463046FFF71AFACC
:102A800002A92046CDF808800397FFF7BDF9284634
:102A9000FDF7E8FB0F20FDF7E5FB29463046FFF781
:102AA00007FA20460821FFF705FA20461021FFF714
:102AB00001FA20462021FFF7FDF920464021FFF7CB
:102AC000F9F929463046FFF7F5F902A92046CDF875
:102AD00008800397FFF798F92846FDF7C3FB2946BE
:102AE0003046FFF7E5F920460821FFF7E3F92046D5
:102AF0001021FFF7DFF9204606E000BF001002407A
:102B0000000C0240000802402021FFF7D3F92046C4
:102B10004021FFF7CFF920462021FFF7C9F92046D1
:102B20001021FFF7C5F920460821FFF7C1F9294612
:102B30003046FFF7BFF902A92046CDF80880039779
:102B4000FFF762F92846FDF78DFB0F20FDF78AFBA2
:102B500029463046FFF7ACF920460821FFF7AAF9CD
:102B600020461021FFF7A6F920462021FFF7A2F901
:102B700020464021FFF79EF929463046FFF79AF993
:102B800002A92046CDF808800397FFF73DF92846B3
:102B9000FDF768FB29463046FFF78AF920460821F1
:102BA000FFF788F920461021FFF784F920462021FD
:102BB000FFF780F920464021FFF77CF920464021AD
:102BC000FFF776F929463046FFF774F902A9204647
:102BD000CDF808800397FFF717F92846FDF742FB69
:102BE0000F20FDF73FFB29463046FFF761F92046ED
:102BF0000821FFF75FF920461021FFF75BF9204617
:102C00002021FFF757F920464021FFF753F92946C5
:102C10003046FFF74FF902A92046CDF80880039708
:102C2000FFF7F2F82846FDF71DFB29463046FFF76F
:102C30003FF920460821FFF73DF920461021FFF714
:102C400039F920462021FFF735F920464021FFF7CA
:102C500031F920462021FFF72BF920461021FFF7FC
:102C600027F929463046FFF725F902A92046CDF875
:102C700008800397FFF7C8F82846FDF7F3FA0F20FE
:102C8000FDF7F0FA04B0BDE8F08700BF2DE9F04F82
:102C900090F800B085B0BBF1000F00F0A180DFF824
:102CA0005082904E98F800308F4D904C0190002249
:102CB000814600920BE0FAB288F8003019F802B0B1
:102CC00000924A440192BBF1000F00F08980082B6A
:102CD00000F0A7804FF400513046FFF7E9F80121DA
:102CE0002846FFF7E5F808212046FFF7E3F8102112
:102CF0002046FFF7DFF820212046FFF7DBF84FEAF8
:102D00001B1A40212046FFF7D5F81AF0010F40F0BA
:102D100083801AF0020F7AD11AF0040F72D11AF0E0
:102D2000080F03D008212046FFF7C2F801212846EA
:102D3000FFF7C0F8782240F2012302A92046029250
:102D40000393FFF761F80120FDF78CFA0121284673
:102D5000FFF7AEF808212046FFF7ACF81021204617
:102D6000FFF7A8F820212046FFF7A4F840212046CD
:102D7000FFF7A0F81BF0010F3FD11BF0020F37D176
:102D80001BF0040F2FD11BF0080F03D008212046A1
:102D9000FFF78EF801212846FFF78CF840F2012357
:102DA000782202A9204603930292FFF72DF8012012
:102DB000FDF758FA98F80030009F0133DBB2202B62
:102DC00007F101077FF477AFFBB21A4600930023A7
:102DD00088F8003019F802B0BBF1000F7FF47AAF29
:102DE00005B0BDE8F08F10212046FFF761F8CAE773
:102DF00020212046FFF75CF8C2E740212046FFF77C
:102E000057F8BAE710212046FFF752F887E720214C
:102E10002046FFF74DF87FE740212046FFF748F8AE
:102E200077E74FF0200B4FF400513046FFF742F8A0
:102E300001212846FFF73CF808212046FFF73AF821
:102E400010212046FFF736F820212046FFF732F800
:102E500040212046FFF72EF840212046FFF728F8B2
:102E600001212846FFF726F84FF0780A02A940F220
:102E700001272046CDF808A00397FEF7C5FF0120E3
:102E8000FDF7F0F901212846FFF712F80821204646
:102E9000FFF710F810212046FFF70CF820212046FC
:102EA000FFF708F840212046FFF704F810212046DC
:102EB000FEF7FEFF01212846FEF7FCFF02A920468F
:102EC000CDF808A00397FEF79FFF0120FDF7CAF990
:102ED0000BF1FF3313F0FF0BA5D1019B93F800B06A
:102EE000F8E600BF00080240000C0240001002405B
:102EF000440600202DE9F041334D344C82B0804629
:102F00004FF400513248FEF7D5FF28460121FEF765
:102F1000CFFF20460821FEF7CDFF20461021FEF707
:102F2000C9FF20462021FEF7C5FF20464021FEF7BD
:102F3000C1FF28460121FEF7BDFF7827694640F210
:102F40000126204600970196FEF75EFF0120FDF75F
:102F500089F928460121FEF7ABFF20460821FEF73C
:102F6000A9FF20461021FEF7A5FF20462021FEF7ED
:102F7000A1FF20464021FEF79DFF20464021FEF79D
:102F800097FF28460121FEF795FF694620460097E6
:102F90000196FEF739FF0120FDF764F90D4B002281
:102FA00005201A70FDF75EF96946204600970196E4
:102FB000FEF72AFF0120FDF755F94046FFF766FEB0
:102FC00002B0BDE8F08100BF000C024000100240DA
:102FD000000802404406002070B50F4B1E78A6B9C9
:102FE0000546FDF78BF90D4B1C688CB162681A60C1
:102FF000FDF786F901220A4B268120466560227082
:103000006361FEF72FFD204670BD0024204670BD91
:10301000FDF776F9204670BD4C15002048150020BC
:10302000683D00082DE9F8430378012B16D12E4B9B
:103030001C78002C4ED12D4B1E78002E45D1054614
:1030400017468846FDF75AF96C68814664B16E6090
:10305000FDF756F93E702046BDE8F88301230024B1
:1030600013702046BDE8F883214E336893F834206E
:10307000C3F8308042F0020283F8354083F83420F0
:103080002846FEF79DFC4846FDF73AF9FEF7FAFCA4
:10309000FDF734F98046306890F835300BB3022BD9
:1030A0001CD02946FEF7B0FC0A233B70336800228F
:1030B000404683F8342083F83520DA611A625A6278
:1030C000FDF71EF92046BDE8F8830D231370204656
:1030D000BDE8F883022313700024BCE70E233B7085
:1030E000E4E7446A3B70E1E74C150020E41300205C
:1030F000501500200378012B01D00120704770B5D6
:1031000004460E46FDF7FAF8A37A05462BB9656822
:1031100085B1FDF7F5F8142070BD31460023022279
:103120002046FEF7E7FB2846FDF7EAF8FEF7AAFC83
:10313000002070BD6660FDF7E3F8284670BD00BF53
:1031400081F0004102E000BF83F0004330B54FEA58
:1031500041044FEA430594EA050F08BF90EA020FC5
:103160001FBF54EA000C55EA020C7FEA645C7FEA58
:10317000655C00F0E2804FEA5454D4EB5555B8BF7B
:103180006D420CDD2C4480EA020281EA030382EAEC
:10319000000083EA010180EA020281EA0303362D7E
:1031A00088BF30BD11F0004F4FEA01314FF4801C51
:1031B0004CEA113102D0404261EB410113F0004F63
:1031C0004FEA03334CEA133302D0524263EB43031A
:1031D00094EA050F00F0A780A4F10104D5F1200EB8
:1031E0000DDB02FA0EFC22FA05F2801841F1000113
:1031F00003FA0EF2801843FA05F359410EE0A5F1E7
:1032000020050EF1200E012A03FA0EFC28BF4CF017
:10321000020C43FA05F3C01851EBE37101F00045CD
:1032200007D54FF0000EDCF1000C7EEB00006EEBDA
:103230000101B1F5801F1BD3B1F5001F0CD3490864
:103240005FEA30004FEA3C0C04F101044FEA4452BB
:1032500012F5800F80F09A80BCF1004F08BF5FEA42
:10326000500C50F1000041EB045141EA050130BD22
:103270005FEA4C0C404141EB010111F4801FA4F1C5
:103280000104E9D191F0000F04BF01460020B1FA1A
:1032900081F308BF2033A3F10B03B3F120020CDA52
:1032A0000C3208DD02F1140CC2F10C0201FA0CF030
:1032B00021FA02F10CE002F11402D8BFC2F1200C95
:1032C00001FA02F120FA0CFCDCBF41EA0C0190404B
:1032D000E41AA2BF01EB0451294330BD6FEA040494
:1032E0001F3C1CDA0C340EDC04F11404C4F120027F
:1032F00020FA04F001FA02F340EA030021FA04F391
:1033000045EA030130BDC4F10C04C4F1200220FAE7
:1033100002F001FA04F340EA0300294630BD21FA25
:1033200004F0294630BD94F0000F83F4801306BFEB
:1033300081F480110134013D4EE77FEA645C18BFDF
:103340007FEA655C29D094EA050F08BF90EA020F76
:1033500005D054EA000C04BF1946104630BD91EA6E
:10336000030F1EBF0021002030BD5FEA545C05D171
:103370004000494128BF41F0004130BD14F58004B0
:103380003CBF01F5801130BD01F0004545F0FE4124
:1033900041F470014FF0000030BD7FEA645C1ABF59
:1033A000194610467FEA655C1CBF0B46024650EA90
:1033B000013406BF52EA033591EA030F41F40021BC
:1033C00030BD00BF90F0000F04BF0021704730B542
:1033D0004FF4806404F132044FF000054FF0000117
:1033E00050E700BF90F0000F04BF0021704730B5D8
:1033F0004FF4806404F1320410F0004548BF4042AD
:103400004FF000013EE700BF42004FEAE2014FEA01
:1034100031014FEA02701FBF12F07F4393F07F4FDC
:1034200081F06051704792F0000F14BF93F07F4F0E
:10343000704730B54FF4607401F0004521F0004151
:1034400020E700BF50EA010208BF704730B54FF0D7
:1034500000050AE050EA010208BF704730B511F0DC
:10346000004502D5404261EB41014FF4806404F114
:1034700032045FEA915C3FF4DCAE4FF003025FEA96
:10348000DC0C18BF03325FEADC0C18BF033202EB1E
:10349000DC02C2F1200300FA03FC20FA02F001FA78
:1034A00003FE40EA0E0021FA02F11444C1E600BF17
:1034B00070B54FF0FF0C4CF4E06C1CEA11541DBFCA
:1034C0001CEA135594EA0C0F95EA0C0F00F0DEF895
:1034D0002C4481EA030621EA4C5123EA4C5350EA7A
:1034E000013518BF52EA033541F4801143F48013CB
:1034F00038D0A0FB02CE4FF00005E1FB02E506F05C
:103500000042E0FB03E54FF00006E1FB03569CF0B0
:10351000000F18BF4EF0010EA4F1FF04B6F5007FB6
:1035200064F5407404D25FEA4E0E6D4146EB060628
:1035300042EAC62141EA55514FEAC52040EA5E50B1
:103540004FEACE2EB4F1FD0C88BFBCF5E06F1ED85B
:10355000BEF1004F08BF5FEA500E50F1000041EB92
:10356000045170BD06F0004646EA010140EA02003F
:1035700081EA0301B4EB5C04C2BFD4EB0C0541EA61
:10358000045170BD41F480114FF0000E013C00F376
:10359000AB8014F1360FDEBF002001F0004170BD9A
:1035A000C4F10004203C35DA0C341BDC04F11404B3
:1035B000C4F1200500FA05F320FA04F001FA05F23F
:1035C00040EA020001F0004221F0004110EBD3700C
:1035D00021FA04F642EB06015EEA430E08BF20EA38
:1035E000D37070BDC4F10C04C4F1200500FA04F3DB
:1035F00020FA05F001FA04F240EA020001F000416D
:1036000010EBD37041F100015EEA430E08BF20EADF
:10361000D37070BDC4F1200500FA05F24EEA020E27
:1036200020FA04F301FA05F243EA020321FA04F056
:1036300001F0004121FA04F220EA020000EBD3700D
:103640005EEA430E08BF20EAD37070BD94F0000F0D
:103650000FD101F00046400041EB010111F4801F41
:1036600008BF013CF7D041EA060195F0000F18BFF2
:10367000704703F00046520043EB030313F4801F2E
:1036800008BF013DF7D043EA0603704794EA0C0FE8
:103690000CEA135518BF95EA0C0F0CD050EA4106FE
:1036A00018BF52EA4306D1D181EA030101F000417B
:1036B0004FF0000070BD50EA410606BF10461946A3
:1036C00052EA430619D094EA0C0F02D150EA0136AF
:1036D00013D195EA0C0F05D152EA03361CBF1046F0
:1036E00019460AD181EA030101F0004141F0FE418F
:1036F00041F470014FF0000070BD41F0FE4141F413
:10370000780170BD70B54FF0FF0C4CF4E06C1CEA12
:1037100011541DBF1CEA135594EA0C0F95EA0C0FC7
:1037200000F0A7F8A4EB050481EA030E52EA033582
:103730004FEA013100F088804FEA03334FF08055A3
:1037400045EA131343EA12634FEA022245EA1115D0
:1037500045EA10654FEA00260EF000419D4208BF81
:10376000964244F1FD0404F5407402D25B084FEA2E
:103770003202B61A65EB03055B084FEA32024FF4DA
:1037800080104FF4002CB6EB020E75EB030E22BF37
:10379000B61A754640EA0C005B084FEA3202B6EBF7
:1037A000020E75EB030E22BFB61A754640EA5C00A6
:1037B0005B084FEA3202B6EB020E75EB030E22BF36
:1037C000B61A754640EA9C005B084FEA3202B6EB37
:1037D000020E75EB030E22BFB61A754640EADC00F6
:1037E00055EA060E18D04FEA051545EA16754FEA58
:1037F00006164FEAC30343EA52734FEAC2025FEA76
:103800001C1CC0D111F4801F0BD141EA00014FF004
:1038100000004FF0004CB6E711F4801F04BF0143D5
:103820000020B4F1FD0C88BFBCF5E06F3FF6AFAEF1
:10383000B5EB030C04BFB6EB020C5FEA500C50F181
:10384000000041EB045170BD0EF0004E4EEA113104
:1038500014EB5C04C2BFD4EB0C0541EA045170BD0B
:1038600041F480114FF0000E013C90E645EA060E4F
:103870008DE60CEA135594EA0C0F08BF95EA0C0F7D
:103880003FF43BAF94EA0C0F0AD150EA01347FF4C5
:1038900034AF95EA0C0F7FF425AF104619462CE79C
:1038A00095EA0C0F06D152EA03353FF4FDAE1046FF
:1038B000194622E750EA410618BF52EA43067FF450
:1038C000C5AE50EA41047FF40DAF52EA43057FF4E0
:1038D000EBAE12E74A0011D212F5001211D20DD54B
:1038E0006FF47873B3EB62520ED44FEAC12343F006
:1038F000004343EA505323FA02F070474FF00000B0
:10390000704750EA013002D14FF0FF3070474FF05E
:10391000000070470A22002100F002BAD0F8EC0043
:10392000704700BF044B054A1B685B6B002B08BF48
:103930001346D3F8EC00704790000020D404002018
:1039400082B049B15AB16BB113780B601278101C78
:1039500018BF012002B0704701A9002AF3D1104618
:1039600002B070476FF00100F4E700BF844641EAFF
:10397000000313F003036DD1403A41D351F8043BE7
:1039800040F8043B51F8043B40F8043B51F8043B39
:1039900040F8043B51F8043B40F8043B51F8043B29
:1039A00040F8043B51F8043B40F8043B51F8043B19
:1039B00040F8043B51F8043B40F8043B51F8043B09
:1039C00040F8043B51F8043B40F8043B51F8043BF9
:1039D00040F8043B51F8043B40F8043B51F8043BE9
:1039E00040F8043B51F8043B40F8043B51F8043BD9
:1039F00040F8043B51F8043B40F8043B403ABDD248
:103A0000303211D351F8043B40F8043B51F8043BE9
:103A100040F8043B51F8043B40F8043B51F8043BA8
:103A200040F8043B103AEDD20C3205D351F8043B78
:103A300040F8043B043AF9D2043208D0D2071CBF44
:103A400011F8013B00F8013B01D30B88038060466D
:103A5000704700BF082A13D38B078DD010F00303E3
:103A60008AD0C3F10403D21ADB071CBF11F8013B53
:103A700000F8013B80D331F8023B20F8023B7BE7A2
:103A8000043AD9D3013A11F8013B00F8013BF9D2CD
:103A90000B7803704B7843708B7883706046704767
:103AA00070B4860746D0541E002A41D0CAB20346DD
:103AB00002E014F1FF343BD303F8012B9D07F8D14A
:103AC000032C2ED9CDB245EA05250F2C45EA054534
:103AD00019D903F110022646103E0F2E42F8105C51
:103AE00042F80C5C42F8085C42F8045C02F11002F7
:103AF000F2D8A4F1100222F00F0204F00F041032E9
:103B0000032C13440DD91E462246043A032A46F8D4
:103B1000045BFAD8221F22F003020432134404F09B
:103B200003042CB1C9B21C4403F8011B9C42FBD115
:103B300070BC704714460346C2E700BF80EA01022A
:103B4000844612F0030F4FD111F0030F32D14DF81C
:103B5000044D11F0040F51F8043B0BD0A3F10132D6
:103B60009A4312F0803F04BF4CF8043B51F8043BE9
:103B700016D100BF51F8044BA3F101329A4312F061
:103B8000803FA4F101320BD14CF8043BA24312F068
:103B9000803F04BF51F8043B4CF8044BEAD0234665
:103BA0000CF8013B13F0FF0F4FEA3323F8D15DF817
:103BB000044B704711F0010F06D011F8012B0CF8DF
:103BC000012B002A08BF704711F0020FBFD031F857
:103BD000022B12F0FF0F16BF2CF8022B8CF80020DE
:103BE00012F47F4FB3D1704711F8012B0CF8012B61
:103BF000002AF9D1704700BF2DE9F84FDDF8289071
:103C00000F46804616461D468A4600E0A2465446A8
:103C1000484614F801BBFFF781FE5844427812F081
:103C20000802F3D1BBF12D0F4FD0BBF12B0F04BF16
:103C300094F800B00AF102041DB1102D56D0AC4624
:103C400004E0BBF1300F60D00A25AC46002A0CBF5F
:103C50006FF000494FF000490021B9FBFCFE084617
:103C60000CFB1E9A05E029D00CFB0030012114F852
:103C700001BBABF13003092B05D9ABF14103192B83
:103C80000BD8ABF137039D420FDDB1F1FF3FEED012
:103C90008645E8D24FF0FF31E9E7ABF16103192B1C
:103CA00003D8ABF157039D42EFDC4B1C13D002B19C
:103CB000404246B1C1B93760BDE8F88F9A45D3DAC2
:103CC0004FF0FF31D3E7BDE8F88F94F800B0012240
:103CD0000AF10204B0E72223C8F80030EEB1671EF3
:103CE00048463760BDE8F88F8146F8E7BBF1300FF2
:103CF000A5D1237803F0DF03582BA0D14FF0100C8F
:103D000094F801B065460234A0E7237803F0DF039E
:103D1000582BF3D00825AC4698E74846BDE8F88F05
:103D200030B5084C084B25686C6B83B0002C08BF7D
:103D30001C46009413460A4601462846FFF75CFFDE
:103D400003B030BD90000020D404002021B1FF2A30
:103D500004D80A7001207047084670478A23036020
:103D60004FF0FF30704700BF3F0000000A0D456E66
:103D700074657220636F6D6D616E64205B6465763F
:103D8000696365286C2C642C62292E76616C7565DC
:103D90002F746578745D3A2000000000556E6B6EDC
:103DA0006F776E20636F6D6D616E642069676E6FF3
:103DB0007265640D0A000000506C656173652077C0
:103DC0006169743A20636F6D6D616E647320617216
:103DD00065206265696E67206578656375746564E2
:103DE0002E2E2E00436F6D6D616E647320657865B5
:103DF00063757465643A200020646F6E652C2063DF
:103E00006F6E74696E75652E0D0A000030313233A5
:103E10003435363738394142434445460A0D5374E8
:103E200061636B4461746120666F722070726F63AE
:103E300065737320000000002C2055736167653D99
:103E400000000000202D20467265653D0000000046
:103E5000554152545F434F4D4D414E445F513200E6
:103E600075432F4F532D494920766572736965203C
:103E70000000000020766F6F7220646520434F526F
:103E8000544558204D340A0D0000000070726F63D5
:103E90006573736F72206F7020000000204D487AA8
:103EA0002C206D6574207065726869706572616C34
:103EB00073206F7020000000204D487A0A0D00002A
:103EC000554152545F434F4D4D414E445F51322056
:103ED00069732065656E2071756575652D766572EF
:103EE0007369652076616E20554152545F434F4D92
:103EF0004D414E442E204865742064656D6F6E738D
:103F0000747265657274207175657565696E672C6C
:103F1000206D61696C626F78696E672C20666C61D8
:103F20006767696E672C20686F65206A65206D6120
:103F30006B6B656C696A6B207461736B7320637261
:103F4000656565727420287461736B637265617452
:103F5000652E632920656E2064652062696469723C
:103F6000656374696F6E656C65206F6D67616E6700
:103F7000206D657420646520554152542D636F6D2A
:103F8000706F72742028756172747461736B2E6324
:103F9000292E204F6D20746520626567696E6E65FD
:103FA0006E2074797074206465206765627275692B
:103FB0006B657220636F6D6D616E646F277320692E
:103FC0006E207669612065656E207465726D696E1C
:103FD000616C2D70726F6772616D6D612C206276FD
:103FE0002E207465726D696E616C2E6578652E0D7C
:103FF00020556172747461736B3A0D312E206C65BB
:1040000065737420696E6B6F6D656E64652063689F
:1040100061726163746572732076616E20646520DD
:10402000756172742E204461742069732065656E19
:1040300020636F6D6D616E646F2C20646174206409
:1040400065206765627275696B65722076696120AB
:1040500065656E207465726D696E616C2D70726F2E
:104060006772616D6D6120696E746F657473742C15
:10407000206276206C2E3235352C206461742061EC
:104080006C6C65206C6564732061616E7A65742E5A
:104090000D322E2064697420636F6D6D616E646FE4
:1040A00020776F7264742067656C657A656E2C206A
:1040B000696E2065656E2073747275637420676520
:1040C0007A657420656E206E61617220646520716E
:1040D0007565756520276765737475757264272E1D
:1040E0000D332E206E612027652720776F72647450
:1040F0002065656E20676F2D666C6167206765734C
:104100007475757264206E616172200D44697374F8
:104110007269625461736B3A0D342E2064617420AD
:10412000646520636F6D6D616E646F2773207569C0
:10413000742064652071756575652065656E2076EF
:104140006F6F722065656E20756974766F65727425
:1041500020766961206D61696C626F78696E672C89
:1041600020646F6F722068657420636F6D6D616E7F
:10417000646F206E616172206465206A7569737472
:1041800065206F757470757420286C65642C2064CC
:104190006973706C6179206F662062757A7A6572D6
:1041A000292074652073747572656E2E20456C6BC2
:1041B000206F75747075746A652068656566742013
:1041C0007A696A6E20656967656E207461736B2019
:1041D000646965206F702065656E206D61696C6231
:1041E0006F782077616368742E0D352E20616C73B3
:1041F0002065656E20636F6D6D616E646F207569FB
:10420000746765766F657264206973207374757561
:1042100072742064652062657472656666656E649A
:1042200065206F75747075742D7461736B2065658E
:104230006E20666C6167207465727567206F6D20F3
:104240007465206C6174656E20776574656E20649A
:1042500061742068657420636F6D6D616E646F209A
:104260007569746765766F6572642069732E203690
:104270002E20616C7320616C6C6520636F6D6D61C5
:104280006E646F2773207569746765766F657264F5
:10429000207A696A6E20776F726474206465207179
:1042A00075657565206F7067657363686F6F6E64A1
:1042B00020656E2065656E20666C6167206E6161A9
:1042C0007220556172745461736B206765737475E5
:1042D0007572642C207A6F646174206E69657577DD
:1042E0006520636F6D6D616E646F277320696E6703
:1042F0006574696B74206B756E6E656E20776F7276
:1043000064656E2E0D4D69636869656C2053636149
:104310006765720A0D000000000001000200010044
:10432000030001000200010004000100020001007E
:10433000030001000200010005000100020001006D
:10434000030001000200010004000100020001005E
:10435000030001000200010006000100020001004C
:10436000030001000200010004000100020001003E
:10437000030001000200010005000100020001002D
:10438000030001000200010004000100020001001E
:10439000030001000200010007000100020001000B
:1043A00003000100020001000400010002000100FE
:1043B00003000100020001000500010002000100ED
:1043C00003000100020001000400010002000100DE
:1043D00003000100020001000600010002000100CC
:1043E00003000100020001000400010002000100BE
:1043F00003000100020001000500010002000100AD
:10440000030001000200010004000100020001009D
:10441000030001000200010075432F4F532D49494D
:104420002049646C6500000043000000504F534970
:10443000580000002E000000002020202020202016
:104440002020282828282820202020202020202044
:104450002020202020202020208810101010101054
:1044600010101010101010101004040404040404A0
:10447000040404101010101010104141414141413A
:10448000010101010101010101010101010101011C
:10449000010101011010101010104242424242422C
:1044A00002020202020202020202020202020202EC
:1044B0000202020210101010200000000000000094
:1044C00000000000000000000000000000000000EC
:1044D00000000000000000000000000000000000DC
:1044E00000000000000000000000000000000000CC
:1044F00000000000000000000000000000000000BC
:1045000000000000000000000000000000000000AB
:10451000000000000000000000000000000000009B
:10452000000000000000000000000000000000008B
:0945300000000000000000000082
:10453900250D0008740D002007000000640000002C
:10454900010000001D150008C40800200800000033
:104559006400000001000000511D0008040F002044
:104569000900000064000000010000001D1D000892
:10457900E40B00200A0000006400000001000000B4
:10458900851D0008540A00200B000000640000008B
:104599000100000000000000000000000000000011
:1045A9000000000000000000C03E0008503E000866
:1045B90000000000010203040102030406070809C0
:1045C900980000200000000000000000000000002A
:1045D90001000000000000000000000000000000D1
:1045E90000000000000000000000000000000000C2
:1045F90000000000000000000000000000000000B2
:1046090000000000000000000000000000000000A1
:104619000000000000000000000000000000000091
:1049F9000000000000000000010203040607080986
:104A0900007A030A430000000000000000000000D3
:104A1900000000000000000000000000000000008D
:104A2900000000004300000000000000000000003A
:104A3900000000000000000000000000000000006D
:104A4900000000004300000000000000000000001A
:104A5900000000000000000000000000000000004D
:104A690000000000430000000000000000000000FA
:104A7900000000000000000000000000000000002D
:104A890000000000430000000000000000000000DA
:104A9900000000000000000000000000000000000D
:104AA90000000000430000000000000000000000BA
:104AB90000000000000000000000000000000000ED
:104AC900000000004300000000000000000000009A
:104AD90000000000000000000000000000000000CD
:104AE900000000004D3D00084139000800000000A9
:104AF9003844000834440008883E0008883E00080D
:104B0900883E0008883E0008883E0008883E000864
:104B1900883E0008883E0008883E0008FFFFFFFF26
:104B2900FFFFFFFFFFFFFFFFFFFF000001004153F1
:104B39004349490000000000000000000000000097
:104B490000000000000000000000000000004153C8
:104B59004349490000000000000000000000000077
:104B6900000000000000000000000000000000003C
:0400000508000000EF
:00000001FF
